:020000040800F2
:10000000382300203D020008BB5800087F5000083C
:10001000B9580008D9240008316300080000000026
:100020000000000000000000000000005F5C00080D
:100030007726000800000000CB580008BD5D0008CE
:10004000570200085702000857020008570200082C
:10005000570200085702000857020008570200081C
:10006000792600085702000857020008F925000801
:1000700005260008112600081D260008292600086C
:1000800035260008412600085702000857020008DC
:1000900057020008570200085702000857020008DC
:1000A00057020008570200085702000857020008CC
:1000B00057020008570200083D5E0008570200087A
:1000C000570200085702000857020008E1580008CC
:1000D000570200081963000825630008570200084A
:1000E00057020008570200085702000800F002F803
:1000F00000F094F80AA090E8000C82448344AAF12E
:100100000107DA4501D100F089F8AFF2090EBAE82B
:100110000F0013F0010F18BFFB1A43F0010318473B
:100120005CA000007CA00000103A24BF78C878C111
:10013000FAD8520724BF30C830C144BF04680C60ED
:10014000704700000023002400250026103A28BF35
:1001500078C1FBD8520728BF30C148BF0B60704739
:100160006E2900F00F84702900F05985662909F086
:10017000F484652909F0F184672909F0EE84612986
:1001800009F0ED8403681B0A28BF41F0800169294A
:1001900000F01481642900F01181752900F00E81AE
:1001A0006F2900F0E684782900F02585E92900F020
:1001B0008184E42900F07E84F52900F07B84EF2916
:1001C00000F0E384F82900F024850368DB0928BFE8
:1001D00041F08001632901F02B81732901F0308106
:1001E000E32901F03B81F32901F0408100207047B1
:1001F0001FB59DE8030000F0C9FA01F091F9040071
:100200000020002108F03CFD401C6060002000211F
:1002100008F020FDE0601FBD10B510BD01F052F9DF
:100220001146FFF7E5FF07F0D5F801F02FFA03B408
:10023000FFF7F2FF03BC01F05FFA000009488047B6
:1002400009480047FEE7FEE7FEE7FEE7FEE7FEE7B8
:10025000FEE7FEE7FEE7FEE704480549054A064BD0
:1002600070470000395E0008ED000008381D0020CE
:1002700038230020381F0020381F002070B50646A4
:1002800000F068FA056806F10B0020F00704B4429C
:100290009CBF002070BD2B466A68BAB11068A042AE
:1002A00010D304F1080188423CBF5068586007D35E
:1002B0005168101941601168091B01605860146091
:1002C000101D70BD13465268002AE7D1214628460A
:1002D00000F048FA0028DED170BD70B50446051F55
:1002E00000F038FA0068002C14BF446870BD002C80
:1002F00018BFAC423CBF20466468F8D301680A18B6
:10030000AA4218BF456003D12A680546114401601E
:1003100028684119A1421CBF6C6070BD61686960AA
:1003200021680844286070BDB2F120030AD5C2F1EB
:10033000200320FA02F001FA03F321FA02F140EA65
:100340000300704721FA03F04FF0000170470000EE
:100350007CB51D4616460C00009001D02044401E7E
:10036000074B7B442A4669460190304600F023FB48
:1003700005461CB10020694600F030FB28467CBDD4
:10038000810600000FB47CB50C0009AA009001D0D2
:100390002044401E084B7B4469460190089800F0B9
:1003A0000AFB05461CB10020694600F017FB2846F1
:1003B0007CBC5DF814FB00004D0600002DE9F04107
:1003C0000646002410687529314616A510D000F0A5
:1003D00045FA002802DA404213A507E031688A078F
:1003E00001D512A502E0490704D511A5012401E0B9
:1003F00000F03DFA00210A2206F1240709E0B0FBD3
:10040000F2FCB0FBF2F302FB1C00303078541846CB
:10041000491C0028F3D123462A463046BDE8F04166
:1004200000F057BA000000002D0000002B00000073
:10043000200000002DE9F05F894604464FF0000AD5
:10044000DFF874B1FB44C0F820A02046E16888477B
:10045000002874D0252806D0D4E901219047206ACD
:10046000401C2062F1E700265F462046E16888478D
:100470002028054607DB312D05D2781910F8200C0D
:1004800008B10643F1E7B00701D526F00406C4F829
:100490001CA00027C4F818A02A2D09D0284605F072
:1004A000FAFF38B304EB8708303DC8F8185019E05C
:1004B00059F8041B204604EB87029161E1688847E4
:1004C000012F054618D1E069002820DA26F0200621
:1004D0001DE0D8F8180000EB800005EB4000303834
:1004E000C8F818002046E1688847054605F0D3FFA4
:1004F0000028EED1012F0AD02E2D08D12046E16828
:1005000088477F1C0546022F46F02006C4DBA06901
:10051000002803DA404246F00106A061F00701D04E
:1005200026F010066C2D0BD0682D09D04C2D39D03B
:100530006A2D35D0742D35D07A2D33D016E038E0C1
:10054000E1682F4620468847B842054609D16C2FFE
:1005500026D04FF48060E168064320468847054670
:1005600004E06C2F1AD04FF4807006430DB3A5F150
:100570004100192802D8203546F400664A4629462B
:10058000204626604E46FFF7EBFD80B101280BD0D8
:10059000F61D26F0070000F1080956E74020E4E7C1
:1005A0008020D8E70020D6E706F104094DE7284669
:1005B00052E7206ABDE8F09F7C9B0000032A40F2CE
:1005C000308010F0030C00F0158011F8013BBCF1F5
:1005D000020F624498BF11F801CB00F8013B38BF0D
:1005E00011F8013BA2F1040298BF00F801CB38BF1B
:1005F00000F8013B11F0030300F02580083AC0F039
:10060000088051F8043B083A51F804CBA0E80810E0
:10061000F5E7121D5CBF51F8043B40F8043BAFF313
:100620000080D20724BF11F8013B11F801CB48BF6D
:1006300011F8012B24BF00F8013B00F801CB48BFA3
:1006400000F8012B704710B5203AC0F00B80B1E8DC
:100650001850203AA0E81850B1E81850A0E81850F7
:10066000BFF4F5AF5FEA027C24BFB1E81850A0E800
:10067000185044BF18C918C0BDE810405FEA827C1A
:1006800024BF51F8043B40F8043B08BF7047D20731
:1006900028BF31F8023B48BF11F8012B28BF20F8D2
:1006A000023B48BF00F8012B704702F0FF0343EA0A
:1006B000032242EA024200F002B84FF0000204298D
:1006C000C0F0128010F0030C00F01B80CCF1040C81
:1006D000BCF1020F18BF00F8012BA8BF20F8022BB5
:1006E000A1EB0C0100F00DB85FEAC17C24BF00F85B
:1006F000012B00F8012B48BF00F8012B70474FF089
:10070000000200B5134694469646203922BFA0E861
:100710000C50A0E80C50B1F12001BFF4F7AF09076D
:1007200028BFA0E80C5048BF0CC05DF804EB89005E
:1007300028BF40F8042B08BF704748BF20F8022BA1
:1007400011F0804F18BF00F8012B704770477047B9
:100750007047000000487047E01C00207047704759
:100760007047704738B504460A4600206946AFF323
:100770000080002808BF38BD02460099204600F0DE
:1007800061FA012038BD012000F094BEF8B5AFF346
:100790000080054600200C46102000BF0646A81920
:1007A000A0420DD9324669460020AFF30080070011
:1007B00008BF00F07FFE0098A04218BF0546C4198C
:1007C000FFF7C8FF05600746F01D20F00700461937
:1007D000284600F00AF8B44208BFF8BDA21B314613
:1007E0003868BDE8F84000F02DBA00210160C0E98A
:1007F000011070471020704710B500F01FFA006814
:1008000010BD10B5044600F019FA046010BD70B5B3
:10081000044685690068C10601D5302600E020261F
:10082000C00707D070BDD4E9012130469047206A47
:10083000401C20626D1EF6D570BD70B504468569FA
:100840000078C00707D170BDD4E90121202090476E
:10085000206A401C20626D1EF6D570BD09684A05ED
:1008600001D540B27047C905FCD500B27047096890
:100870004A0501D5C0B27047C905FCD580B27047A2
:1008800070B50C460546012A05D02878800600D5AB
:10089000EA69002302E0012305E05B1C934202D2D7
:1008A000E05C0028F9D1A869E618C01AA861286A96
:1008B000184428622846FFF7AAFF04E0D5E9012181
:1008C00014F8010B9047B442F8D32846FFF7B5FF60
:1008D00070BD2DE9F0470D4699469246044600F159
:1008E00024080168880604D5E06921F01001216020
:1008F00000E00120A84201DD471B00E00027A169BC
:100900007A1902EB0900081AA0612078C00602D407
:100910002046FFF77CFF002608E0D4E901211AF801
:1009200006009047206A401C761C20624E45F4DB8E
:100930002078C0060AD52046FFF769FF06E0D4E913
:10094000012130209047206A401C2062381EA7F108
:100950000107F4DC07E0D4E9012118F8050090470D
:10096000206A401C2062281EA5F10105F3DC204608
:10097000FFF763FF2078000602D50220BDE8F0876C
:100980000120FBE711680268006A530501D5087071
:100990000AE0D30501D5088006E0130603D5C21787
:1009A000C1E9000200E008600120704701694A1CAB
:1009B00002610878704700B58FB0CDE901310021A0
:1009C000059105497944CDE9031011466846FFF7C2
:1009D00031FD0FB000BD0000E5FFFFFF0A6802F81F
:1009E000010B0A607047D1E900239A4202D2531CDE
:1009F0000B601070704700002DE9FF5F15468A46B6
:100A00000446DFF8AC80F8440027D8E900103E46E1
:100A1000CDE9001010E03AF816106A4602A800F07E
:100A200029FD411C07D02178890603D5E2693918D0
:100A300091420DD80744761C2078800602D5E069E3
:100A4000B84205DDAE42E6DB3AF816000028E2D1F6
:100A5000A069C01BA0612046FFF7D9FED8E90010AD
:100A6000CDE90010002017E03AF818106A4602A8F5
:100A700000F000FDB0F1FF3F81460BD000250DF1E5
:100A8000080B05E0D4E901211BF8050090476D1C17
:100A90004D45F7D308F10100B0428046E4DB206AFF
:100AA000384420622046FFF7C8FEBDE8FF9F0000E3
:100AB000CE9500002DE9F0418046D21D22F00702BC
:100AC0000025D2E90002F52915A614D0011E72F105
:100AD000000106DA0023D0EB030063EB020211A64B
:100AE00008E0D8F800108B0701D50FA602E04907EF
:100AF00001D50EA601251146002408F1240704E0C3
:100B000000F0BAF830323A55641C50EA0102F7D1CD
:100B10002B46324621464046BDE8F041FFF7D9BE9C
:100B2000000000002D0000002B000000200000004D
:100B300030B4002100F1240408E002F00705D208D7
:100B4000303542EA4372DB086554491C52EA03051A
:100B5000F3D10468002310A2250707D5A40600D40A
:100B600021B1C46901230DA2641EC46130BCFFF72A
:100B7000B0BE10B5044621461068FFF778FE024665
:100B80002046BDE810400023D2E7D21D22F0070125
:100B9000D1E90023CCE70000000000003000000095
:100BA000F0B40D460188090502D5214C7C4402E0D1
:100BB0001F4C7C440E34002100F1240608E002F0B2
:100BC0000F071209E75D42EA03721B097754491CBB
:100BD00052EA0307F3D102780023120704D5702DDF
:100BE00006D009B1022311342246F0BCFFF771BED2
:100BF00001231034F8E770B504460D46214610680D
:100C0000FFF735FE024629462046BDE87040002326
:100C1000C6E7D21D22F00703D3E90023C0E703682B
:100C2000126843F0200303600823C3610023B7E781
:100C30003094000000487047D81C002000487047DE
:100C4000D81C0020034640688C46002818BF884204
:100C50003CBF03464068F8D318681844884207D060
:100C60000CF1030020F00700001D411A521A014642
:100C7000081D0A60FFF731BB30B5B0F10A024FEA38
:100C8000900E71F100034EEA817EB0EB0E0061EB35
:100C900091014FEA101E4EEA017E10EB0E0041EB6F
:100CA00011114FEA102E4EEA016E10EB0E0041EBCF
:100CB00011214FEA104E4EEA014E10EB0E0041EBAF
:100CC0001141401841F100014FEAD00040EA417063
:100CD0004FEAD10110EB80054FEA810444EA907499
:100CE00044EB01046D1944EB0404521BA3414FF083
:100CF000000348BF0A3200D530BD401C41F100015D
:100D000030BD70472DE9FF4F0C461E464FF0FF37B0
:100D10008BB0D2E90001DDF860800A908A46C1F309
:100D20000A5505B93D46002108464FF00000BAF1CA
:100D3000000F00F4400005DA00EB80004FF44001A2
:100D400001EA50004FEA9059B9F1010F00DDB946B0
:100D50000A9850EA4A000ED044F61050A5F2FF352A
:100D600045432F14B8F1000F1ED07542291E1EDD19
:100D7000C9F100021CE0B8F1010F4FF0000001D0F2
:100D8000302103E0F24305E02154401CB042FBDB7C
:100D900030460022002121540B99C1F80880C1E996
:100DA00000200FB0BDE8F08FBD1B6D1CDEE74A468A
:100DB00000DA694206A800F0F7FB06AB93E80700EB
:100DC00003AB83E8070050460A9900F0FCFC8DE86D
:100DD0000700A0F500501F3800900398002D0ADD91
:100DE00042F21F014A460844002303A903906846C3
:100DF00000F065FF09E0A0F500504A461F380023C7
:100E000003A90390684600F06FFF8DE80700000417
:100E1000000C03D04FF0FF30410800E01046B8F15D
:100E2000000F03D00022009215461EE0751E05D467
:100E3000FFF722FF303262556D1EF9D5B34601220D
:100E4000084302D000227F1C04E02078302801D122
:100E500000227F1E002A099784D01DE0112D07DA99
:100E6000FFF70AFF303262556D1C50EA0102F5D1DE
:100E7000084302D00098C8B10EE00021681E05E0CA
:100E8000235C625C63542254401E491C8142F7DBA0
:100E9000AB46A81B401E0990002004F80B000B98DD
:100EA000099AC0F80880C0E9002B7AE711264FF0B4
:100EB000000857E72DE9F04F88460446D21D22F07E
:100EC000070191B0D1E90001CDE90A0105F058FA16
:100ED00002460B98C00F01D02D2007E02068810743
:100EE00001D52B2002E0202101EAC000032A09904D
:100EF00001D0072A05DB03464146204600F014FBDB
:100F00000BE12078800601D5E06900E00620B8F109
:100F1000650F814606D0B8F1660F18D0B8F1670F9B
:100F200070D131E00020B9F1110F009001DB1123E5
:100F300001E009F101030AAA01A90CA8FFF7E2FEEA
:100F4000DDE90C70002609F10105834647E0012028
:100F50004B4600904FF000470AAA01A90CA8FFF7E2
:100F6000D1FEDDE90DB00C995D46002610B909F1FE
:100F700001000D18B9EB050003D4C0F1FF3609F1EB
:100F80000105A5EB09002BE0B9F1010F01DA4FF0E3
:100F900001090020B9F1110F0090484601DD11232D
:100FA00000E003460AAA01A90CA8FFF7ABFEDDE9A1
:100FB0000C704D4600268346207800070AD4AB45C6
:100FC00000DA5D4601A8012D04DD411911F8011C6C
:100FD000302907D04F4502DA17F1040F04DA012057
:100FE00082460FE06D1EEEE7002F02DCED1B3E4453
:100FF00003E0781CA84200DD7D1CB81B00F1010A4B
:101000004FF000472078000703D4AA4501DB4FF0DA
:10101000FF3A0021B7F1004F0DF143088DF843105E
:1010200024D002202B23002F01DA7F422D230A2116
:10103000021EA0F1010000DC5FB197FBF1FC97FB01
:10104000F1F201FB1C7C17460CF1300C08F801CDC5
:10105000EEE7A8F1010003702188090501D54521BB
:1010600000E06521A0F1010800F8011C09980FA912
:10107000A1EB0807FF1D00B10120411901EBEA7047
:10108000A1693844081A401EA0612078C00602D425
:101090002046FFF7BCFB099828B1D4E9012190470D
:1010A000206A401C20622078C00622D52046FFF727
:1010B000AEFB1EE0002E04DBB34502DD01A8805D1F
:1010C00000E03020D4E901219047206A401C2062D2
:1010D000761CAAF101005FEA000A0AD100F020FAAA
:1010E000C0680168405CD4E901219047206A401C37
:1010F0002062281EA5F10105DCDC07E0D4E901210E
:1011000018F8010B9047206A401C2062381EA7F196
:101110000107F3DC2046FFF790FB032011B041E606
:101120002DE9F04F04460D46D21D22F0070089B08C
:10113000D0E900974846394605F022F90246F80FF3
:1011400001D02D2307E02068810701D52B2302E081
:10115000202101EAC0038DF820300BB1012000E00E
:101160000020032A824601D0072A04DB29462046B4
:1011700000F0DAF93FE12078800601D40D2500E087
:10118000E569C7F30A560D2D49DA00214FEA175BCE
:1011900008464FF00000002F00F4400007DA00EB93
:1011A00080004FF4400100EBD07001EA600081152F
:1011B000012901DD4FF0FF3100224FEA850CBCF11F
:1011C000180F06D31346ACF118004FF08052C240FE
:1011D00003E04FF4801323FA0CF30CF10C0CBCF178
:1011E000200F04D3ACF1200C09FA0CF001E007FA4F
:1011F0000CF000294FF0004801DD18B90FE00ED1C6
:1012000040450CD319EB02095F4121B9404502D199
:101210009F4329EA0209BBEB175F00D0761C2088A8
:10122000000502D57B48784402E07A4878441938B2
:1012300008AA302302F80A30037C0AF10101002ECB
:101240000AF1020A53546A4602DC4FF0300101E011
:101250004FF031014FF001088DF8001002D0A6F2D6
:10126000FF3603E059EA470100D06B4E002D02DC47
:101270002178090704D54FF002082E218DF80110BE
:10128000C44600210BE0C7F303433F01C35C491C84
:101290006D1E02F80830052908F1010801DA002D59
:1012A000F1DC00210CE000EB1973491C1B786D1E6A
:1012B000082902F808304FEA091908F1010801DA93
:1012C000002DF0DC21688B0602D516E0A8F101089C
:1012D000E04505DD02EB080313F8013C302BF5D0A7
:1012E000B8F1000F09DD02EB080313F8013C2E2BC7
:1012F00003D1090701D4A8F10108002D05DD3E2125
:1013000002F808106D1E08F10108407C002E02F85A
:10131000080008F1010804DA2D20764202F80800DE
:1013200002E02B2002F808000A214FF47A7086426E
:1013300008F101080BDB96FBF0F3303302F80830BC
:1013400096FBF0F308F1010800FB136601E0642E40
:101350000CDB642096FBF0F3303302F8083096FB88
:10136000F0F308F1010800FB136601E00A2E06DB2A
:1013700096FBF1F0303002F8080008F1010896FB06
:10138000F1F001FB1060303002F80800A16908F1AB
:10139000010808EB050202EB0A00081AA061207898
:1013A000C00602D42046FFF732FA216A08AE01EBEC
:1013B0000A00206204E0D4E9012116F8010B9047ED
:1013C000BAF1010AF7D22078C00602D52046FFF70D
:1013D0001EFA6E4609E016F8010B3E280FD0D4E93C
:1013E00001219047206A401C2062B8F10108F2D226
:1013F0002046FFF722FA09B00320BDE8F08F206AEB
:101400002844206203E0D4E90121302090476D1E7A
:10141000EBD3F8E7298E000002FCFFFF10B543690B
:1014200013B1AFF3008001E0FFF72AFA012010BDED
:10143000127800F124010A7000224A700122EDE7BF
:1014400011684FF0FF32E9E710B5436913B1AFF30C
:10145000008001E0FFF7D0FA012010BD128800F1F2
:10146000240182840022C2840122EDE711684FF03A
:10147000FF32E9E770B516460C46054600F048F81D
:10148000036893F80101012806D0FF2C0FD8185DDE
:1014900068B101202C7070BDD3F807013246214697
:1014A00003F2071303442846BDE8704018474FF085
:1014B000FF3070BD10B500F0F7F8BDE8104000F047
:1014C000EEB870477546FFF7B5FBAE4605006946B6
:1014D000534620F00700854618B020B5FEF7BCFE45
:1014E000BDE820404FF000064FF000074FF0000825
:1014F0004FF0000B21F00701AC46ACE8C009ACE8A6
:10150000C009ACE8C009ACE8C0098D4670470000CE
:1015100010B500F005F8001D10BD00BF6577000094
:1015200000487047F81C00202DE9F0411F46044692
:1015300003260168072A01F4006004DB08B116A540
:1015400005E016A503E008B115A500E015A521F0FA
:1015500010002060A069C01EA0610FB1401EA061F4
:101560002046FFF754F94FB1D4E90121384690479E
:10157000206A401C2062C01C206206E0206AFAE754
:10158000D4E9012115F8010B9047761EF8D22046C8
:10159000FFF753F9BDE8F0814E414E006E616E00D9
:1015A000494E4600696E66002DE9F04781461646B1
:1015B0008AB0354878440DC88DE80D00324878442B
:1015C000801C03AC0DC884E80D0041F69B30084434
:1015D000372190FBF1F290FBF1F5A5F1800501FBBD
:1015E00012041B3C02D56442012000E00020DFF819
:1015F00098A080460027FA44AAF1BE0A0EE0E00750
:101600000AD03246684607EB470101230AEB810105
:1016100000F06AFB8DE8070064107F1C002CEED1FF
:10162000194F7F44AE3F19E0E80715D007EB0410CF
:101630000DF1180A90E80E008AE80E00C068F0422A
:1016400001D1981908903246012306A903A800F099
:101650004BFB03AB83E807006D10641C002DE3D146
:101660004FF0010332466946B8F1000F03A802D0DB
:1016700000F025FB01E000F037FBC9E90001C9F8E3
:1016800008200AB0BDE8F087348B000010B504468E
:10169000AFF300802046BDE81040FEF7C8BD00282B
:1016A00001D000F029B8704710B5012805D00021FD
:1016B00003A000F027F8012010BD09A1F8E7000001
:1016C00053494752544D454D3A204F7574206F662B
:1016D0002068656170206D656D6F72790000000093
:1016E0003A2048656170206D656D6F727920636F77
:1016F000727275707465640001491820ABBEFEE714
:101700002600020070B505460C460A2000E06D1C5C
:1017100000F052F835B128780028F8D102E0641CB6
:1017200000F04AF814B120780028F8D1BDE87040E4
:101730000A2000F041B800004FF0013C50F8042BA3
:1017400051F8043B9A4221D1A2EB0C03934313EAD4
:10175000CC1317D150F8042B51F8043B9A4215D101
:10176000A2EB0C03934313EACC130BD150F8042BD8
:1017700051F8043B9A4209D1A2EB0C03934313EABC
:10178000CC13DBD04FF00000704700BFD01A01BA75
:10179000B1FA81F101F0180122FA01F0CB40C1F158
:1017A0002001DBB2C0B2C01A2CFA01F3D11A914366
:1017B00011EAC311E6D1704708B569468DF80000FB
:1017C0000320ABBE08BD5FEA400C08BF91F0000FDC
:1017D0004FEA8C234FEAC12243EA51514FEA1C5091
:1017E00018BF00F5F0404FEA300018BF41F000414B
:1017F0005FEA6C5C00F02980BCF1FF3F08BF40F05D
:1018000080407047130C06BF12044FF0100C4FF0CD
:10181000000C130E04BF12020CF1080C130F04BFCE
:1018200012010CF1040C930F04BF92000CF1020C96
:10183000D30F04BF52000CF1010C11464FF000020F
:10184000A0F11F00A0EB0C00704711F0004F08BF83
:10185000704731F000413FF4D5AF0B0C06BF0904CF
:101860004FF0100C4FF0000C0B0E04BF09020CF1EE
:10187000080C0B0F04BF09010CF1040C8B0F04BF03
:1018800089000CF1020CCB0F04BF49000CF1010CD4
:10189000CCF12003A0EB0C0022FA03F302FA0CF2C5
:1018A00041EA030100F10100704720F07F4C80EA1B
:1018B000030023F07F47ACEB070303F57C5300F0F4
:1018C000004003F1FF032DE980494FEA154B09B4AD
:1018D0004FEA144325EA0B4E24EA03480FF204268C
:1018E00006EB132749083E785FEA320203FB0667DE
:1018F000C7F5000707FB06F64FEA54374FEAD6460E
:1019000006F1020607FB066CCCF1005C4FEA1C47AF
:101910002CEA074C07FB06F40CFB06F504EB154616
:101920004FEA961634BF00204FF000404FEAD137FF
:1019300006FB07FC4FEA1C4C0CFB0BF7D21B03FB0E
:101940000CF761EB07010CFB0EF7B0EB074072EBF5
:1019500017420CFB08F734BFA2EB0742B2EB074279
:1019600061EB17414FEA0C444FEA910706FB07FC75
:101970004FEA1C4C0CFB0BF7B0EBC74072EB573235
:1019800003FB0CF734BFA2EBC742B2EBC74261EBDB
:1019900057310CFB0EF7B0EBC70072EB57720CFB24
:1019A00008F734BFA2EBC702B2EBC70261EB577175
:1019B000039F4FEA816141EA921104EBCC044FEAA4
:1019C000D1374FEA826206FB07FC42EA90124FEAE7
:1019D00080604FEA1C4C0CFB0BF7D21B03FB0CF78F
:1019E00061EB07010CFB0EF7B0EB074072EB1742FF
:1019F0000CFB08F734BFA2EB0742B2EB074261EBE6
:101A000017414FEA8C554FEA910704EB9C2406FBE3
:101A100007FC4FEA1C4C0CFB0BF7B0EBC74072EB1A
:101A2000573203FB0CF734BFA2EBC742B2EBC742FD
:101A300061EB57310CFB0EF7B0EBC70072EB57723E
:101A40000CFB08F734BFA2EBC702B2EBC70261EB95
:101A5000577115EB4C254FEA816141EA92114FEA2B
:101A600082624FEAD13742EA901206FB07FC44F14A
:101A700000044FEA80604FEA1C4C0CFB0BF7D21BB2
:101A800003FB0CF761EB07010CFB0EF7B0EB074013
:101A900072EB17420CFB08F734BFA2EB0742B2EB24
:101AA000074261EB174115EB1C154FEA813141EA02
:101AB00092414FEA823242EA90424FEA80304FEA46
:101AC0000C7644F1000448EA03434EEA0B484FF019
:101AD000000EB2EB080C71EB030724BF62463946D7
:101AE0004EEB0E0E4FF0000B0018524149414BEBEC
:101AF0000B0BB2EB080C71EB03077BF1000B24BF5F
:101B0000624639464EEB0E0E4FF0000B0018524164
:101B100049414BEB0B0BB2EB080C71EB03077BF16C
:101B2000000B24BF624639464EEB0E0E51EA020707
:101B300018BF46F0010616EB0E7655F1000254F17F
:101B4000000103D5BDE88901BDE80088BDE8890131
:101B5000BDE80048B619524141EB0101A3F1010370
:101B6000704780807F7E7D7C7B7A7978777676750A
:101B70007473727171706F6E6E6D6C6C6B6A6A6982
:101B80006868676666656464636362616160605F1C
:101B90005F5E5E5D5D5C5C5B5B5A5A595958585795
:101BA00057565655555554545353525252515150FD
:101BB00050504F4F4F4E4E4D4D4D4C4C4C4B4B4B50
:101BC0004A4A4A4949494848484747474746464696
:101BD00045454544444444434343434242424241D1
:101BE0004141002B9C4630D477002BD01CB54FEAE6
:101BF000370703B44FF010004FF01001BAF1000F97
:101C000006D0BCF1000FDCBF40F0080040F0080136
:101C10004FF000000FBCBDE810400BF1010BBBF111
:101C2000010F08BF5FEA170722BF12F1010211F18D
:101C300001014FF0004143F1000300F0004043EA8E
:101C400000007047F9D35708D0E746EA064613F17B
:101C5000400F4FEA16461FDD13F1200FDFBF16437A
:101C60000A46002120335B42BED0C3F1200746EA7A
:101C7000064602FA07F74FEA164646EA0706C3F198
:101C8000200722FA03F201FA07F721FA03F14FF0D5
:101C9000000342EA0702A7E746EA020646EA0646CA
:101CA0004FEA164646EA0106BCBF46EA0646360C2F
:101CB0004FF000034FF000024FF0000194E72DE9D0
:101CC000804C9A46934670B491E8380007C831EAD0
:101CD000400C48BF34EA430C03D5FFF7E6FDFFF79D
:101CE00080FFF0BCBDE8008C2DE9804C9A469346FD
:101CF00070B491E8380007C810F0804F08BF13F0A7
:101D0000804F03D100F005F8FFF76BFFF0BCBDE892
:101D1000008C20F07F4780EA030023F07F4C07EB24
:101D20000C03A3F57C5300F00040A3F1FE0392F0F6
:101D3000000F00F0B38095F0000F00F077802DE9E0
:101D400001494FEA11404FEA144621EA004800FBDE
:101D500006FC24EA064708FB06F607FB08F800FB2A
:101D600007F718EB06484CEB164C4FEA124B18EBF2
:101D700007484FEA15464CEB174022EA0B4E0BFB87
:101D800006FC25EA06470EFB06F607FB0EFE0BFBDC
:101D900007F71EEB064E4CEB164C4FF000061EEB01
:101DA000074E4CEB174B18EB0B0840F1000018EBFB
:101DB0000E0B58EB000840F100008F1A4FF00001A5
:101DC0003CBFC943661B14BFB5EB040C00213CBFEC
:101DD000C943F61B4FEA17444EEA8E0E27EA044524
:101DE0004FEA1C4704FB07622CEA074C05FB07F788
:101DF0000CFB05F604FB0CFC16EB074642EB174206
:101E000016EB0C4642EB1C421BEB060658EB02029B
:101E1000414146EA9E0601D5BDE80189B619524105
:101E200041EB0101A3F10103BDE801894FEA14452B
:101E30004FEA114724EA054621EA074C05FB07F45F
:101E400006FB07F70CFB06F105FB0CFC11EB074149
:101E500044EB17444FEA124711EB0C4144EB1C448E
:101E600022EA074C05FB07F206FB07F70CFB06F618
:101E700005FB0CFC16EB074642EB174216EB0C4633
:101E800042EB1C456A1854F1000148BF7047B6196F
:101E9000524141EB0101A3F10103704795F0000F9E
:101EA00037D04FEA11424FEA144721EA024624EAAA
:101EB000074C02FB07F106FB07F70CFB06F402FBDD
:101EC0000CFC14EB074441EB17414FEA154714EBA8
:101ED0000C4441EB1C4125EA074C02FB07F506FBCD
:101EE00007F70CFB06F602FB0CFC16EB074645EB6E
:101EF000174516EB0C4645EB1C42121951F1000137
:101F000048BF7047B619524141EB0101A3F10103EB
:101F100070474FEA14454FEA114724EA054621EA83
:101F2000074C05FB07F106FB07F70CFB06F24FF029
:101F3000000605FB0CFC12EB074241EB174112EBCC
:101F40000C4251EB1C4148BF7047921841EB010114
:101F5000A3F101037047000070B504460068816872
:101F6000C943C90717D1816821F00101816001F0DF
:101F700077FA05460AE000BF01F072FA401B02281A
:101F800004D920688068C043C00706D020688068F4
:101F9000C043C007F0D0002070BDA06A40F0100020
:101FA000A062E06A40F00100E062012070BD000024
:101FB000F8B500260446009600688168C943C90741
:101FC0002DD0816841F001018160164816490068F2
:101FD000B0FBF1F000E0401E00900028FBD101F0C2
:101FE0003FFA054616E000BF01F03AFA401B02280E
:101FF00010D920688068C043C0070BD0A06A40F0A9
:102000001000A062E06A40F00100E06284F8246001
:102010000120F8BD20688068C043C007E4D10020DB
:10202000F8BD00001C00002040420F0000F09EB9E7
:1020300000F0C2B900F00ABA00F018BA00F032BAE3
:102040000348007808B1002070476FF00200704725
:102050002C00002070B5124C00210A46204603F0E7
:10206000F5FC4FF0FF3508B10EA00BE080212046B3
:1020700003F0BAFC08B113A004E0204603F06CFDA5
:1020800020B118A003F0CAFF284670BD1D48007893
:10209000012802D11CA003F0C1FF002070BD000088
:1020A0007417002050726573656E742049324320A6
:1020B00070617373776F7264206661696C65640D1B
:1020C0000A0000005354323544565F436F6E666910
:1020D0006775726547504F206661696C65640D0ACB
:1020E000000000005354323544565F536574475026
:1020F0004F5F656E5F44796E206661696C65640D43
:102100000A00000001000020506F6C6C20657665AD
:102110006E7420636F6E666967757265643A2052EB
:10212000465F5752495445206F6E6C790D0A000086
:10213000002801D04FF0FF30704700F015B90000C3
:1021400010B5154C86B0207810B1002006B010BD37
:1021500028211248FEF7D3FA18216846FEF7CFFA75
:102160000F4800900F4801900F4802900F480390CD
:102170000F4804900F4805906946084803F0A4FCF6
:1021800010B14FF0FF30E1E7044803F04AFC0120B2
:102190002070FFF75FFFD8E72C00002074170020A5
:1021A000312000082D200008352000083D200008BF
:1021B000392000083B21000870B514460D00064682
:1021C00006D02CB1FFF73CFF28B16FF0020070BDC4
:1021D0006FF0010070BD234632462946034803F0E4
:1021E0005CFCBDE87040FFF7A3BF0000741700203F
:1021F00070B514460D00064606D02CB1FFF720FF3F
:1022000028B16FF0020070BD6FF0010070BD234671
:1022100032462946034803F0A8FCBDE87040FFF7AA
:1022200087BF00007417002030B5A1B04021684678
:10223000FEF765FA402110A8FEF761FA0020ADF81C
:102240008000044606F0A8FB08B125A000E029A004
:1022500003F0E4FE20A9684606F0A0FB40B129A1E6
:102260002CA003F0DBFEFFF76BFF20B12BA003E0F7
:1022700001242EA1F4E730A003F0D0FE402210A9E3
:102280000020FFF799FF10A804F0E2FD050006D03A
:102290002CA120A003F0C2FE1DB18CB91DE02EA11F
:1022A000F7E794B1DDF84110DDF80100814207D96C
:1022B00010A923466A46084604F000FE00280AD00A
:1022C0006A46234610A9104603E010A923466A4631
:1022D000084604F0F3FD21B030BD4FF0FF30FAE7BF
:1022E000466C61736820496E6974204661696C0DA3
:1022F0000A000000466C61736820496E69740D0A1B
:1023000000000000666C617368206E6F7420766157
:102310006C69640025730D0A000000004E464320DE
:10232000496E6974204661696C0D0A00666C6173C0
:10233000682076616C6964004E464320496E69747A
:102340000D0A0000656570726F6D206E6F742076E7
:10235000616C696400000000656570726F6D2076C5
:10236000616C69640000000001F07AB870B50E4835
:1023700000240168B1B1491E016013D10B48C16945
:1023800021F48001C1610A4D0115284600F0D4FEF8
:10239000E914284600F0D0FE064801F067F808B1BD
:1023A0006FF00704204670BD0C00002000100240B2
:1023B000000C0140E01000202DE9F0411F4986B0DB
:1023C0001D4808601E4800250168491C016001295C
:1023D0002ED11A4801F065F850BB1A4CA06940F0A4
:1023E0000800A061A069122600F0080004902015E2
:1023F000CDE90006DFF85080032769460397404681
:1024000000F034FFE014CDE900066946039740462A
:1024100000F02CFFE06940F48000E061E06900F426
:1024200080000490054803F069F908B16FF00705D2
:1024300006B02846BDE8F08100580040E0100020BA
:102440000C00002000100240000C014010B50A46AC
:10245000014600244FF48053034801F0E9F800B12D
:10246000E41E204610BD0000E01000203EB54FF4F1
:1024700080558DE82C000A460146002410230848A8
:1024800001F08CF948B1064801F009F8042802D09F
:102490006FF0650401E06FF0030420463EBD0000CC
:1024A000E01000203EB54FF480558DE82C000A4620
:1024B000014600241023074801F09EFA28B1054880
:1024C00000F0EDFF042802D0241F20463EBD6FF02F
:1024D0006504FAE7E0100020FEE7002804D001B10F
:1024E0000121017200F077B870470000032801D382
:1024F00000207047034900EB400001EB8000C079E9
:10250000704700003000002070B50024084E2546BA
:1025100004EB440006EB80000021C5710572457292
:1025200000F059F8641CE4B2032CF1D370BD000034
:102530003000002003280BD200EB4002054800EBDE
:1025400082000022C171427201B10121FFF7C5BFB3
:10255000704700003000002070B5074D002400BF18
:1025600004EB440005EB800000F008F8641CE4B2C2
:10257000032CF5D370BD00003000002070B50400BE
:102580000ED0E079002580B1012804D0022808D0BF
:1025900003280AD105E001212046FFF79EFF65725E
:1025A00070BD022803D0032803D00021F4E70520E2
:1025B00000E00120617A491CC9B261728142EFD307
:1025C0006572207A28B100212046BDE87040FFF7EF
:1025D00084BF0121F8E700280CD08279012A01D0BC
:1025E00009B102E009B1012200E0002281880068FF
:1025F00000F031BF70470000014800F0C9BB000087
:102600008C0D0020014800F0C3BB0000280E002004
:10261000014800F0BDBB00006C0E0020014800F036
:10262000B7BB000014100020014800F0B1BB00004F
:10263000D00F0020014800F0ABBB00005810002074
:10264000014800F0A5BB00009C10002030B590F8B8
:1026500040500124AC40C56B6C6004686360436803
:10266000102B036803D099600068C26030BD9A6087
:102670000068C16030BD7047042000F0EBBD72B649
:10268000FEE7000006490020C8610648016941F0E4
:1026900004010161016941F04001016170470000DE
:1026A0003811002000200240064A0021D16106496D
:1026B0000A6942F002020A614861086940F040007C
:1026C000086170473811002000200240044B0022AE
:1026D000DA61044A136943F0010313610180704712
:1026E000381100200020024014480022C168CB06A7
:1026F000134904D5CA6942F00202CA611022C368B4
:102700005B0705D5CB6943F00103CB6142F00402BE
:10271000C369DB0707D0CB6943F00403CB61C16910
:1027200021F00101C161A2F58071013901D0C260BF
:102730007047C16921F00101C1617047002002406A
:102740003811002070B5054600F08AFE0646114C8F
:1027500009E0681C07D025B100F082FE801BA8426A
:1027600001D9032070BDE068C007F2D1E06880069F
:1027700001D52020E060E068C00605D4E069C0070C
:1027800002D1E068400703D5FFF7AEFF012070BD1E
:10279000002070BD00200240F8B50024009490F89D
:1027A00024202546012A12D0012280F824204A68DC
:1027B0001F23072A0DD20668776B521E02EB820296
:1027C00093409F430B6893401F43776319E00220B7
:1027D000F8BD06680D2A0AD2376BD21F02EB8202BF
:1027E00093409F430B6893401F43376309E0F76AA8
:1027F0000D3A02EB820293409F430B6893401F43C4
:10280000F7620A68072306680A2A0AD3F7680A3AB1
:1028100002EB420293409F438B6893401F43F76053
:1028200008E0376902EB420293409F438B68934074
:102830001F4337610A68102A01D0112A20D1124B98
:1028400002689A4217D193681B0219D4936843F423
:10285000000393600968102912D10C490C4A0968D9
:10286000B1FBF2F101EB8101490000E0491E00914A
:102870000029FBD104E0816A41F02001816201243A
:1028800080F824502046F8BD002401401C000020A0
:1028900040420F000068C06C704700002DE9F04115
:1028A0004FF0000704003D467ED0A06A002628B9FC
:1028B000E66284F82460204600F07EF82046FFF7A8
:1028C0004BFBA16AC90600D420B1A06A40F01000F9
:1028D000A06269E0A16A21F4885141F00201A1627D
:1028E0006268E169237B0A4347EA43010A43A1681E
:1028F0004FF48077B94209D0012907D05FF0000179
:1029000094F814C0BCF1010F02D00AE03946F7E791
:10291000F3B1A36A43F02003A362E36A43F0010327
:10292000E3622368D3F804C02CF4694C4CEA010C30
:10293000C3F804C021688B68DFF870C003EA0C0399
:1029400013438B60A168B9420BD0012909D00CE078
:10295000DFF85CC0A3690CEB43330B4343F4006125
:10296000DFE7218A0D05A5F580152168CB6A23F4E0
:1029700070032B43CB62216889680E4B194091424A
:1029800008D1E662A16A21F0020141F00101A162D1
:10299000BDE8F081A06A20F0020040F01000A062C3
:1029A000E06A40F00100E0620120F1E7FDF7E1FF9D
:1029B00000E0FFFFFE0E1FFF70B586B00025064643
:1029C00000950195029503950068194988422DD11B
:1029D0001849886940F400708861886900F40070C3
:1029E0000490886940F0040088618869694600F0B5
:1029F0000400049001200090032001900E4800F094
:102A000035FC0F4C0D48C4E900058020C4E9025094
:102A1000400020618000C4E905052046E56100F022
:102A200061FA08B1FFF72BFE3462666206B070BD32
:102A3000002401400010024000080140080002404C
:102A40008C0D00202DE9F84300270D460446009721
:102A500000F006FD804620688168C90508D5A06A97
:102A600040F02000A06284F824700120BDE8F883C3
:102A70004168C90503D4C06A10F4700F2AD002203F
:102A800001F0ECF83B490968B1FBF0F620680369F6
:102A900039490B424FEA61014FEAA1121FD1C368C5
:102AA0004FEA611C13EA0C0F19D103690B4225D1BF
:102AB000C068104222D1142023E0681C0AD02DB136
:102AC00000F0CEFCA0EB0800A84203D92068006803
:102AD000800725D5206800688007EED52DE00369C2
:102AE0000B4202D1C168114206D0026923490A4251
:102AF00006D1C068084203D1542002E0292000E03A
:102B0000FC204643009816E0681C11D02DB100F05F
:102B1000A7FCA0EB0800A8420AD90098B04207D24F
:102B2000A06A40F00400A06284F8247003209DE7AE
:102B30000098401C0090B042E6D321686FF012006C
:102B40000860A06A40F40070A06220688068C0F34A
:102B5000424007280CD1207B50B9A06A20F4807035
:102B6000A062A06AC00403D4A06A40F00100A06281
:102B700000207BE71C000020244992244992240075
:102B800070B5044690F8240001280DD0012084F887
:102B900024002046FFF70CFA02004FF0000005D099
:102BA00084F82400104670BD022070BDA16A40F276
:102BB0000123994341F48071A1621F4D23681F498D
:102BC000AB4218D10E6816F4702F14D0A66A46F4E2
:102BD0008016A6620E68760505D5A66A26F400560C
:102BE00046F48056A662A66AF6040AD5E66A26F07E
:102BF0000606E66206E0A66A26F48016A6625E680D
:102C0000E9E7E06284F824006FF0020018602068B1
:102C10008368C3F34243072B05D1A84208D1096852
:102C200011F4702F04D0816841F480118160B9E7FC
:102C3000816841F4A001F9E7002801400424014023
:102C400030B502234371002305E000BF056851F849
:102C500023402C605B1C9342F8D301680968012271
:102C60004271084630BD10B5040002D0607910B141
:102C700006E0012010BD00202071204600F004F87D
:102C800001206071002010BD08B500680649884227
:102C900008D10648416941F040014161406900F0B6
:102CA0004000009008BD00000030024000100240CB
:102CB00010B590F821100022022905D0042181636B
:102CC00080F82020012010BD01680B6823F00E035E
:102CD0000B6001680B6823F001030B6090F8403033
:102CE000C46B012101FA03F3636080F8211080F8BE
:102CF0002020104610BD000010B590F821100024CF
:102D0000022903D00421816301243DE001680A689F
:102D100022F00E020A6001680A6822F001020A60CD
:102D20001A4A0168914201D1012121E0174A143267
:102D3000914201D110211BE0144A2832914201D165
:102D4000891515E0114A3C32914201D189140FE0F6
:102D50000E4A5032914202D14FF4803108E00B4AC2
:102D60006432914202D14FF4801101E04FF0807142
:102D7000064A083A5160012180F82110002180F8AC
:102D80002010416B01B18847204610BD0800024069
:102D90002DE9F05FC16B0C6801680B68D0F840C08A
:102DA000042202FA0CF2494DDFF824A1494E4A4FA1
:102DB000DFF828B1DFF828E122422CD05A072AD5C3
:102DC0000A68920603D40A6822F004020A600168C5
:102DD000A94201D1042219E0514501D1402215E058
:102DE000B14202D14FF4806210E0B94202D14FF4F7
:102DF00080420BE0594502D14FF4802206E0714534
:102E000002D14FF4800201E04FF080622F4908396F
:102E10004A60C16A3BE04FF0020808FA0CF818EA71
:102E2000040F4FF000094FF0010235D05FEA8378BC
:102E300032D50B689B0605D40B6823F00A030B60A0
:102E400080F821200168A94201D1022219E05145F0
:102E500001D1202215E0B14202D14FF4007210E0FE
:102E6000B94202D14FF400520BE0594502D14FF460
:102E7000003206E0714502D14FF4001201E04FF03C
:102E80000072124908394A6080F82090816A00294E
:102E90001AD0BDE8F05F0847082505FA0CF5254271
:102EA00012D01B0710D50B6823F00E030B6090F8AF
:102EB0004010C36B02FA01F15960826380F821204F
:102EC00080F82090016BE2E7BDE8F09F0800024027
:102ED0001C00024030000240440002405800024002
:102EE0006C00024030B528B308C8134914221944B5
:102EF000B1FBF2F18900C16310498163022141777E
:102F00001A6843F6F0718A43D0E900142143D0E9EE
:102F100002452C43214304692143446921438469C8
:102F20002143114319600021416301224277017757
:102F3000084630BD012030BDF8FFFDBF0000024053
:102F400070B5044690F82000002501280CD001201F
:102F500084F8200094F821600020012E06D084F827
:102F600020000225284670BD022070BD022684F88C
:102F70002160A0632068066826F0010606602046EE
:102F8000FFF764FBE06A00282068016802D041F086
:102F90000E0106E021F0040101602068016841F0A3
:102FA0000A0101602068016841F001010160D9E770
:102FB00070B5044600F054FA0546601C02D004487F
:102FC0000078044400F04CFA401BA042FAD370BDD4
:102FD000100000202DE9F047054626480F4601263F
:102FE000017E01290FD00121814601762868DFF892
:102FF00088804CF25034022808D0A2462046FFF7C1
:10300000A1FBA8B131E00220BDE8F0872046FFF720
:1030100099FB08BB0120FFF735FB2046FFF792FB29
:10302000D8F81010064621F00401C8F810101CE072
:103030004FF0FF303860AC6811E02046FFF734FBFA
:103040005046FFF77FFBD8F81010060021F0020170
:10305000C8F8101001D03C6007E004F58064D5E9A1
:10306000020100EB8120A042E7D8002189F8181066
:103070003046C9E7381100200020024003480169AA
:1030800041F08001016100207047000000200240F3
:103090002DE9F05F07461C4888460024017E15464E
:1030A0001E46012909D00121814601764CF2503A91
:1030B0005046FFF747FB18B122E00220BDE8F09F21
:1030C000012F02D0022F00D00427D346DFF83CA006
:1030D000220128463146FDF727F981B208EB44006A
:1030E000FFF7F4FA5846FFF72DFBDAF8102022F02C
:1030F0000102CAF8102018B9641CE4B2BC42E7D33C
:10310000002289F81820D9E7381100200020024059
:10311000064900200A69120607D5054A4A60054A91
:103120004A600969090600D5012070470020024065
:1031300023016745AB89EFCD2DE9F04300233E4FD6
:103140000F2573E001229A400A406DD023F003045A
:10315000E619D6F808809C074FEA147C05FA0CF9AA
:1031600009EA0804DFF8D480404502D14FF0000896
:1031700016E0DFF8CC80404502D14FF001080FE0A7
:10318000DFF8C080404502D14FF0020808E0DFF8C8
:10319000B880404502D14FF0030801E04FF0040829
:1031A00008FA0CF8A04522D1284CD4F800C02CEA2B
:1031B000020CC4F800C0241DD4F800C02CEA020C94
:1031C000C4F800C0214C0C34D4F800C02CEA020C26
:1031D000C4F800C0241FD4F800C02CEA020CC4F8C4
:1031E00000C0D6F808C02CEA090CC6F808C0FF2AAF
:1031F00001D8064601E000F104064FEA830401D934
:10320000A4F12004D6F800C005FA04F82CEA080C52
:103210004FF0040808FA04F84CEA080CC6F800C09D
:10322000C46824EA0204C46003F1010331FA03F222
:1032300088D1BDE8F0830000000001400008014093
:10324000000C014000100140001401400004014046
:1032500070470000044910B50A68024202D00860B5
:10326000FFF7F6FF10BD0000140401402DE9F84FF0
:10327000DFF8B8910024A9F1040B23460F2709F1C8
:10328000040AABF1040EC9E00125A5402A40AA4278
:103290007DD1674ED1F804C0ACEB0608B44532D0FE
:1032A00014DCBCF1030F3AD009DCBCF1000F2AD0CA
:1032B000BCF1010F1CD0BCF1020F31D11DE0BCF1FB
:1032C000110F17D0BCF1120F2AD119E0B8F5881FE1
:1032D00019D006DCB8F5803F15D0B8F5801F1FD196
:1032E00011E0B8F5001F0ED0B8F5041F18D10AE0A0
:1032F000CB6815E0CB681B1D12E0CB6808330FE0EC
:10330000CB680C330CE08B682BB1012B4FF008031A
:1033100003D0456104E0042302E0056100E00023DE
:10332000FF2A01D8064601E000F104064FEA8405B1
:1033300001D9A5F12005D6F8008007FA05FC28EA96
:103340000C0803FA05F548EA0508C6F800804D6840
:10335000ED0062D5374DAE6946F00106AE61AD694C
:1033600024F0030605F001050095334D06EB050C2E
:10337000DCF80850A607360F07FA06F825EA080514
:10338000DFF8B880404503D14FF0000817E044E073
:10339000DFF8AC80404502D14FF001080FE0DFF8C4
:1033A000A480404502D14FF0020808E0DFF8988081
:1033B000404502D14FF0030801E04FF0040808FA3D
:1033C00006F848EA0508CCF808804D68D9F800608E
:1033D000ED024D4601D5164300E096432E604D6840
:1033E000DAF80060AD02554601D5164300E0964379
:1033F0002E604D68DBF80060AD035D4601D51643D5
:1034000000E096432E604D68DEF80060ED037546DF
:1034100001D5164300E096432E60641C0D682A46D1
:10342000E5407FF431AFBDE8F88F000008040140AB
:10343000000011100010024000000140000801408F
:10344000000C014000100140001401408068084059
:1034500000D0012070470AB1016170470904FBE701
:1034600001488068704700001000002010B504007B
:1034700013D0242084F83D002068016821F0010168
:103480000160204600F050FB0020206484F83D00DD
:1034900044F8300FA073207310BD012010BD006CE4
:1034A000704790F83D00704770B5040025D094F83F
:1034B0003D00002520B984F83C50204600F035FB43
:1034C000242084F83D002068016821F0010101609A
:1034D0002068016841F4004101602068016821F41E
:1034E0000041016000F018FD4D4A6168914201D829
:1034F0004C4900E04C49884201D2012070BD4B4943
:103500002368B0FBF1F15E6826F03F060E435E6073
:103510006368934206D94FF4967359434FF47A7314
:10352000B1FBF3F12368491C1E6A26F03F063143C4
:1035300019626168914210D84900401EB0FBF1F257
:10354000521CC2F30B02042A01D2042022E0B0FB79
:10355000F1F0401CC0F30B001CE0A268F2B301EBD9
:10356000C10303EB0116431EB3FBF6F35B1C43F4EC
:1035700080431B0549D092B301EBC10202EB01115C
:10358000401EB0FBF1F0401CC0F30B0040F4804043
:1035900040F400402168CA694CF6FF739A43104317
:1035A000C861D4E9071001432068026822F0C00214
:1035B00011430160D4E9030101432068826848F2A5
:1035C000FF339A4311438160D4E905010843216820
:1035D000CA6822F0FF021043C86001E00EE016E066
:1035E0002068016841F0010101602564202084F811
:1035F0003D00256384F83E50002070BD01EB41067C
:10360000431EB3FBF6F35B1CB3E70120C2E701EBFB
:103610004101401EB0FBF1F0401CC0F30B00B7E7C6
:10362000A086010080841E0000093D0040420F007A
:103630002DE9FF4F81B089460446FFF711FF05468B
:1036400094F83D004FF0000820287DD11923012275
:1036500050492046009501F029FE002874D194F8C5
:103660003C00012870D0012084F83C0020680168EB
:10367000C90703D1016841F00101016020680168B8
:1036800021F400610160242084F83D0000262664B6
:103690004148E0624FF0011B20272068016841F497
:1036A000807101600095002259462046049B01F07C
:1036B000FDFD50B120680068C00502D54FF40070D0
:1036C0002064032005B0BDE8F08F216809F0FE00FA
:1036D0000861FFF7C5FE2168054648694969C0F3DE
:1036E0004000C1F380214FF0A00A0FE0FFF7B8FEC1
:1036F000411B0498814200D808B984F83DA0216894
:1037000048694969C0F34000C1F3802194F83D2025
:10371000A02A02D008B90029E8D084F83D702068BA
:103720004169C943890716D4016841F400710160F9
:1037300020684169806919230122164920460095B5
:1037400001F0B4FDB8B900E021E084F83D7084F8E0
:103750003C600020B6E7016841F400710160216817
:103760006FF480604861192301220A4920460095C0
:1037700001F09CFD08B10120A4E7039808F10108BD
:1037800080458AD384F83D7084F83C60F3E70220DA
:1037900098E70000020010000000FFFF2DE9FF4F36
:1037A00083B00025DDE910799A4693460446DDF89A
:1037B00048800095FFF754FE064694F83D00202807
:1037C0007CD11923012288492046009601F06EFD24
:1037D0000028F5D194F83C0001286FD0012084F82E
:1037E0003C0020680168C90703D1016841F001016C
:1037F00001602068016821F400610160222084F8E2
:103800003D00402084F83E0025646762A4F82A90B9
:10381000608D20857548E062CDE9008653465A46A2
:103820002046049901F044FC00287CD1208DDFF86B
:10383000C091202768B1012814D0022820680168AF
:103840001ED041F480610160206841698069009068
:10385000BCE02068416981690091016841F4007110
:103860000160B3E02068016821F48061016072B6F4
:103870002068416981690091016841F400710AE0A2
:1038800041F40061016072B620684169816900916C
:10389000016821F48061016062B697E0032865D871
:1038A00001280CD0022843464FF00002494620462A
:1038B00000960BD001F0FAFCA8BB0CE091E0324678
:1038C0004146204601F098FD68BB72E001F0EEFC35
:1038D00048BB72B633E02068016821F48061016062
:1038E00072B620680069616A0870606A401C606294
:1038F000208D401E2085608D401E60853D4846F22B
:10390000A8110068B0FBF1F0C0EBC00000EB800034
:103910000090401E009007D020684069C0434007D7
:103920000DD50098F5E727E044F8305F6773A5737D
:10393000206940F02000206162B625731CE02068F9
:10394000016841F40071016020680069616A0870D3
:10395000606A401C6062218D491E2185618D491E6F
:10396000618562B621680969017026E032464146E8
:10397000204601F041FD18B1012007B0BDE8F08FED
:1039800020680069616A0870606A401C6062208D6E
:10399000401E81B22185608D401E6085206842698D
:1039A000D243520712D4032903D1016821F4806164
:1039B000016020680069616A0870606A401C60628A
:1039C000208D401E2085608D401E6085208D002842
:1039D0007FF464AF84F83D7084F83E5084F83C5026
:1039E000CBE70220C9E70000020010000000FFFF43
:1039F000040001001C0000202DE9FF4F83B09A460F
:103A0000DDE9119793460446DDF84080FFF728FD75
:103A1000054694F83D0020287FD119230122404912
:103A20002046009501F042FC002876D194F83C0035
:103A3000012872D0012084F83C0020680168C90781
:103A400003D1016841F0010101602068016821F49F
:103A500000610160212084F83D00402084F83E0090
:103A600000262664C4F82480A4F82A90608D20855E
:103A70002C48E062CDE9007553465A462046049929
:103A800001F094FB70B930E02A463946204601F037
:103A9000EBFC58B1206C042804D12068016841F483
:103AA00000710160012007B0BDE8F08F606A2168F5
:103AB00000780861606A401C6062218D491E89B2ED
:103AC0002185628D521E628522685369DB435B0744
:103AD0000BD469B100781061606A401C6062208D6F
:103AE000401E2085608D401E6085208D0028CBD132
:103AF0002A463946204601F0ADFB0028CAD154F8C9
:103B00003D0B016841F400710160202004F81E099A
:103B1000E67766770020C6E7FFE70220C3E70000EC
:103B2000020010000000FFFF7047704702488168E4
:103B3000027811448160704710000020074810B5DA
:103B4000016841F010010160032000F075F80F20BA
:103B500000F006F800F024F8002010BD002002401C
:103B600070B50D4D04464FF47A712878B1FBF0F032
:103B70000A490968B1FBF0F000F0D4FD48B9102CF7
:103B800007D200222146501E00F036F800206C605B
:103B900070BD012070BD0000100000201C0000203E
:103BA0000C4808B5816941F001018161816901F02A
:103BB00001010091C16941F08051C161C06900F00B
:103BC000805000900448416821F0E06141F00071AC
:103BD000416008BD0010024000000140002809DBE0
:103BE00000F01F02012191404009800000F1E02017
:103BF000C0F8001170470000F0B40E4B1B680C4673
:103C0000C3F30223C3F10705042D00D90425191DB0
:103C1000072901D2002300E0DB1E012606FA05F188
:103C2000491E214099409E40761E16403143F0BC0B
:103C300002F0BABB0CED00E0064900F0070208688C
:103C40004FF6FF03184040EA0220034A1043086081
:103C5000704700000CED00E00000FA0510B50146C9
:103C60000020234C012922D0022939D010291DD14E
:103C700061682268D20119D51E48C1F38342C90385
:103C8000805C0AD561681B4AC1F34041921E515CB9
:103C9000194AB2FBF1F1484301E018494843616811
:103CA000490203D440000321B0FBF1F010BD226AA9
:103CB000C2F30121012903D1920701D5C80310BD28
:103CC000022905D1626A920702D549F6404010BD2B
:103CD0000329FCD121688903F9D54FF2244010BD96
:103CE00000F02AF96168C1F38131491C4900DBE722
:103CF00000100240669C000800127A0000093D0096
:103D00002DE9F84305460078354CC00754D0E069EA
:103D10000026C00008D4E06940F08050E061E0690E
:103D2000012600F0805000902E480168C90512D489
:103D30000168804641F480710160FFF791FB0746FE
:103D400005E000BFFFF78CFBC01B642823D8D8F820
:103D50000000C005F6D5206A10F4407021D0A98873
:103D600001F4407181421CD0206A1F49012220F4D5
:103D700040700A6000220A602062C00711D0FFF77D
:103D80006FFB074641F2883808E000BFFFF768FB89
:103D9000C11B414502D90320BDE8F883206A800792
:103DA000F4D5206A696820F44070084320621EB18F
:103DB000E06920F08050E0612878800705D56068D0
:103DC000A96820F44040084360602878C00605D503
:103DD0006068E96820F48000084360600020DBE749
:103DE0000010024000700040400442422DE9F047BC
:103DF0000F46050061D0434E306800F00700B8421E
:103E000009D2306820F0070038433060306800F095
:103E10000700B84251D128683B4C810712D54007B2
:103E200003D5606840F4E06060602878000703D53F
:103E3000606840F4605060606068A96820F0F0003D
:103E4000084360602878C00728D06868012810D02F
:103E50002168022810D0890700292EDA616821F034
:103E6000030101436160FFF7FBFA804641F28839A4
:103E70000DE021688903EFE78901EDE7FFF7F0FA2C
:103E8000A0EB0801494502D90320BDE8F08760682E
:103E9000696800F00C00B0EB810FEFD1306800F0E2
:103EA0000700B8420BD9306820F007003843306073
:103EB000306800F00700B84201D00120E5E728781B
:103EC000400705D56068E96820F4E0600843606059
:103ED0002878000706D56068296920F4605040EA18
:103EE000C100606000F038F86168084AC1F303114E
:103EF000515CC8400649086006480068FFF730FE7C
:103F00000020C2E70020024000100240769C00081A
:103F10001C0000201400002004480549006849687E
:103F2000044AC1F30221515CC84070471C000020C4
:103F300000100240869C0008044805490068496852
:103F4000044AC1F3C221515CC84070471C000020E4
:103F500000100240869C00080E4A51680E4801F08D
:103F60000C03042B11D0082B0FD10C48C1F3834351
:103F7000C903C05C0AD55168084AC1F34041921E8A
:103F8000515C054A5043B0FBF1F070470449484387
:103F9000704700000010024000127A00549C000894
:103FA00000093D002DE9F84F040070D02078C04D85
:103FB000C00749D06868C0F38100012807D068684D
:103FC000C0F38100022809D16868C00306D52868BB
:103FD000800339D560680028E7D035E06068B0F527
:103FE000803F0BD010B1B0F5A02F11D0286820F47D
:103FF00080302860286820F4802002E0286840F49F
:1040000080302860606890B1FFF72AFA06460AE01F
:10401000286840F480202860F0E700BFFFF720FA0E
:10402000801B642873D828688003F7D50CE0FFF75D
:1040300017FA064605E000BFFFF712FA801B642856
:10404000F0D828688003F7D420789A4E80074FF084
:1040500001094FF0000839D5686810F00C0F07D03F
:104060006868C0F38100022809D16868C00306D4DB
:104070002868800714D52069012808D110E020693C
:10408000B0B1C6F80090FFF7EBF9074605E00AE18A
:10409000FFF7E6F9C01B0228C4D828688007F7D5C7
:1040A0002868616920F0F80040EAC10028600DE04E
:1040B000C6F80080FFF7D4F9074604E0FFF7D0F90F
:1040C000C01B022823D828688007F7D4207800076F
:1040D0002CD57948A169D9B1C0F80090FFF7C0F993
:1040E000074604E0FFF7BCF9C01B02280FD8686A36
:1040F0008007F7D571484FF4FA510068B0FBF1F032
:10410000009000BF0098411E0091FAD20EE080E0BE
:10411000C0F80080FFF7A4F9074604E0FFF7A0F914
:10412000C01B022875D8686A8007F7D4207840073A
:1041300060D5E8690027C00008D4E86940F08050E5
:10414000E861E869012700F0805000905C48016850
:10415000C90513D40168834641F480710160FFF7FB
:104160007FF9824606E000BFFFF77AF9A0EB0A006C
:1041700064284ED8DBF80000C005F5D5E0680128BA
:104180000AD008B1052813D0286A20F0010028625F
:10419000286A20F0040002E0286A40F0010028624A
:1041A000E06841F2883B98B1FFF75AF982460BE08C
:1041B000286A40F004002862EEE700BFFFF750F9DC
:1041C000A0EB0A0159455AD8286A8007F6D50CE0B9
:1041D000FFF746F9824605E0FFF742F9A0EB0A0136
:1041E00059454CD8286A8007F6D41FB1E86920F0F9
:1041F0008050E861E06988B36968C1F381010229F0
:1042000044D00228C6F8608004D0FFF729F904469C
:1042100038E034E0FFF724F9074604E0FFF720F91F
:10422000C01B02282BD828688001F7D4206AB0F57B
:10423000803F05D16868A16820F4003008436860B9
:10424000D4E908010843696821F4741108436860DF
:10425000C6F86090FFF704F9044606E025E000BFC9
:10426000FFF7FEF8001B022809D828688001F7D55F
:104270001BE000BFFFF7F4F8001B022802D903205F
:10428000BDE8F88F28688001F4D40EE00128F7D04B
:104290006868226A00F48031914204D1616A00F4B6
:1042A0007010884201D00120EAE70020E8E7000012
:1042B0000010024000004242800442421C000020E4
:1042C000007000407047000038B50446006842683E
:1042D0008168C9434B0606D5CB0704D1D3435B069F
:1042E00001D4216C05E08B0708D4D3431B0605D409
:1042F000616C01B02046BDE8304008478B0601D50F
:104300004B0646D4D3439B0643D44B060AD494F8B9
:104310005130032B3ED0636D43F004036365C368E3
:1043200083680093890609D4616D41F001016165DC
:1043300081680091016821F040010160606D0028F2
:1043400027D02068416821F0E0014160012084F815
:104350005100900722D02068416821F0030141609C
:10436000104DE06C40B14563E06CFEF7C5FC18B140
:10437000606D40F040006065A06C002809D0456386
:10438000A06CFEF7B9FC002803D0606D40F040003F
:10439000606538BDC1688068009038BD2046FFF771
:1043A00091FF38BDED58000870B5040009D0606A6F
:1043B000002540B125616561A56294F8510040B1C6
:1043C0000CE0012070BD6068B0F5827FF4D0E5613B
:1043D000F2E784F85050204600F040F8022084F8BC
:1043E00051002068016821F040010160A088218906
:1043F00000F4827001F404410843A18901F40061D2
:104400000843217C01F002010843217D01F00101F4
:104410000843218B01F400710843217F01F038012A
:10442000084394F8201001F080010843218D01F425
:104430000051084321680860A069042101EA104086
:10444000216848602068C16921F40061C161656527
:10445000012084F85100002070BD0000F0B585B047
:1044600000240646009401940294039400682C49A9
:10447000884253D12B48816941F48051816181691F
:1044800001F480510491816941F0040181618069E6
:10449000254D00F004000490A0200090022001901F
:1044A0000320039069462846FEF7E0FE4020CDE950
:1044B0000004694628460294FEF7D8FE1C4D1B48AE
:1044C0008027C5E90004C5E902472C616C61AC6135
:1044D0002846EC61FEF706FD08B1FEF7D0F8F5645A
:1044E0006E62134D11484435143001C5102091C53A
:1044F0000F4845F8104944306C61AC61EC61FEF73F
:10450000F1FC08B1FEF7BBF8B564002206212320B8
:104510006E62FFF771FB2320FFF760FB05B0F0BD73
:104520000030014000100240000801401C00024021
:10453000280E00202DE9FF4F81B01D46934604460A
:104540004FF001090E9EFEF78BFF074694F85100CD
:104550006168012806D0B1F5827F3CD1A168C9BB52
:10456000042838D10298002871D0BBF1000FFBD08D
:10457000002DF9D094F8500001282CD04FF0010AFA
:1045800084F850A094F85100042802D0052084F843
:1045900051004FF00008C4F85480C4F838B0E587E3
:1045A000A58702992163E586A586C4F84080C4F8F2
:1045B000448020680168490603D4016841F0400145
:1045C0000160E068B0F5006F606808D0F0B3012DBD
:1045D00049D081E0FFE7022005B0BDE8F08F08B1C7
:1045E000012D39D1206B21680088C860206B801CA8
:1045F0002063E08E401EE0862EE0206881688907F7
:104600000FD5E18E69B1B9F1010F0AD1216B09888B
:10461000C160206B801C2063E08E401EE0864FF05E
:10462000000920688168C9070CD0E18F51B1C068CA
:10463000A16B0880A06B801CA063E08F401EE08708
:104640004FF00109FEF70CFFC01B01E00BE067E033
:10465000B04201D3701C50D1E08E0028CDD1E08F44
:104660000028CAD13EE0206B216800780873206BD7
:10467000401C2063E08E401EE0862DE020688168AB
:1046800089070FD5E18E69B1B9F1010F0AD1216B0C
:1046900009780173206B401C2063E08E401EE08689
:1046A0004FF0000920688168C9070CD0E18F51B133
:1046B000C068A16B0870A06B401CA063E08F401E17
:1046C000E0874FF00109FEF7CBFEC01BB04202D3DA
:1046D000701C01D011E086B1E08E0028CED1E08FB1
:1046E0000028CBD13A463146204601F007F950B1B7
:1046F0002020606584F8508012E084F851A084F88E
:104700005080032068E7A06818B92068C1688068F5
:10471000009084F851A084F85080606D0028F1D09A
:10472000012059E710B5401EB0F1807F01D3012070
:1047300010BD4FF0E02460610F21601701F034FEDE
:104740000020A06107202061002010BD7047704745
:1047500070B590F83C20012A26D0012480F83C4016
:10476000022280F83D2003685A689D6822F0700696
:104770000A6832435A600D4B02689A4208D0B2F17F
:10478000804F05D00A4B9A4202D00A4B9A4204D17C
:10479000496825F080031943916080F83D4000216D
:1047A00080F83C10084670BD022070BD002C01400E
:1047B000000400400008004010B5040003D094F845
:1047C0003D0010B107E0012010BD002084F83C003E
:1047D000204600F01FF8022084F83D00211D2068CB
:1047E00001F032FB012084F8460084F83E0084F892
:1047F0003F0084F8400084F8410084F8420084F8C7
:10480000430084F8440084F8450084F83D0000200B
:1048100010BD000008B501681048B1F1804F14D0F8
:104820000F4A914219D1C16941F00401C161C069C7
:10483000002200F0040000900C211E20FFF7DCF99C
:10484000BDE808401E20FFF7C9B9C16941F0010168
:10485000C161C06900F00100009008BD0010024075
:104860000008004090F83D10012901D00120704758
:10487000022180F83D1000680B49884208D0B0F151
:10488000804F05D00949884202D00949884204D1A5
:10489000816801F00701062903D0016841F0010198
:1048A0000160002070470000002C0140000400401F
:1048B0000008004090F83D10012901D00120704708
:1048C000022180F83D100168CA6842F00102CA6006
:1048D00000680B49884208D0B0F1804F05D00949E3
:1048E000884202D00849884204D1816801F007015A
:1048F000062903D0016841F00101016000207047E2
:10490000002C0140000400400008004070B504463F
:1049100090F83C000025012817D0012684F83C605F
:10492000022084F83D002068826822F0770222F499
:104930007F4282600868502838D00DDC20284FD094
:1049400005DC90B3102811D14AE0022070BD302858
:1049500046D040280AD13BE060282FD070280DD0E7
:10496000B0F5805F03D0B0F5005F12D0012584F868
:104970003D60002084F83C00284670BDCB68D1E93A
:104980000121206801F0BAFA2068816841F07701BE
:1049900009E0CB68D1E90121206801F0AFFA206875
:1049A000816841F480418160E1E719E0CA684968A3
:1049B000206801F0B5FA5021206806E0CA6849680D
:1049C000206801F0BEFA6021206801F0A1FACEE76C
:1049D000CA684968206801F0A3FA40212068F4E71A
:1049E000226801461046F0E770472DE9F041044681
:1049F0000068C66805694FF00007A90713D5B1071D
:104A000011D5F91E01610120207720688069800797
:104A1000204602D0FFF7E8FF04E000F07EF82046D1
:104A200000F07CF82777680716D5700714D5216841
:104A30006FF004000861022020772068806910F47C
:104A4000407F204602D0FFF7CFFF04E000F065F87A
:104A5000204600F063F82777280715D5300713D5CF
:104A600021686FF008000861042020772068C06981
:104A70008007204602D0FFF7B7FF04E000F04DF8B2
:104A8000204600F04BF82777E80616D5F00614D537
:104A900021686FF010000861082020772068C06945
:104AA00010F4407F204602D0FFF79EFF04E000F0A4
:104AB00034F8204600F032F82777E80708D0F007EE
:104AC00006D021686FF001000861204600F027F849
:104AD000280608D5300606D521686FF080000861E9
:104AE0002046FFF733FE680608D5700606D5216814
:104AF0006FF040000861204600F01AF8A8060AD5B9
:104B0000B00608D521686FF0200008612046BDE896
:104B1000F041FFF71CBEBDE8F0817047704710B54B
:104B200002F002FDFDF718FDBDE8104001F0A6B847
:104B30007047704770B5006808490024084D8842E6
:104B400006D1811500220748FEF785FC2C7070BD48
:104B500005498842FBD16C7070BD000000380140EF
:104B6000200000200008014000440040F8B5016822
:104B700004460868CA684B6910F00F0F4FF0000533
:104B800059D003F0010602F49077374365D0C1078E
:104B900005D0D10503D5616C41F001016164410785
:104BA00005D5D90703D0616C41F00201616481072A
:104BB00005D5D90703D0616C41F004016164010798
:104BC00007D502F02001314303D0616C41F00801A8
:104BD0006164616C00293AD0800604D5900602D544
:104BE000204601F0DBFA20684069616CC0F3801058
:104BF000090700D460B3204601F09BFA20684069A1
:104C0000400621D52068143050E8001F21F04001F3
:104C100040E80012002AF5D1E06BA8B16D4941636C
:104C2000E06BFEF769F8002811D0E06B416B01B032
:104C3000BDE8F040084783060FD593060DD5204602
:104C4000BDE8F84001F0AABA2046FFF773FFF8BDAF
:104C50002046FFF76FFF6564F8BD266B2023012E09
:104C60007CD1C6067AD5D60678D508684868009003
:104C700048694FF00206400640D5E16B086840687D
:104C80000004000CE8D0A28D8242E5D9E085886955
:104C900020282DD020680C3050E8001F21F48071AE
:104CA00040E80012002AF5D12068143050E8001FB7
:104CB00021F0010140E80012002AF5D120681430EB
:104CC00050E8001F21F0400140E80012002AF5D111
:104CD00084F84230256320680C3050E8001F21F032
:104CE000100140E80012002AF5D1E06BFDF7E0FF6B
:104CF0006663A08DE18D401A81B22AE0A08DE18D1E
:104D0000401A81B2E08D0028A6D00029A4D02268E4
:104D10000C3252E8000F20F4907042E80007002F98
:104D2000F5D12068143050E8002F22F0010240E84D
:104D30000027002FF5D184F84230256320680C301D
:104D400050E8002F22F0100240E80023002BF5D19C
:104D500066632046FFF7EDFEF8BDFFE705062BD59D
:104D6000150629D594F841002128F5D1A068B0F5A1
:104D7000805F01D12069B0B1206A411C21622168A5
:104D800000784860E08C401E0004000CE084E3D111
:104D90002068C16821F08001C1602068C16841F0CD
:104DA0004001C160D8E7206A0088C0F3080048606D
:104DB000206A801C2062E5E74006CDD55006CBD5A1
:104DC000CA68204622F04002CA6084F8413000F0F0
:104DD00039F9C1E78D60000870B5040004D094F87B
:104DE0004100002510B106E0012070BD84F840505C
:104DF000204600F023F8242084F841002068C16890
:104E000021F40051C160204601F02AFA20680169AE
:104E100021F4904101612068416921F02A0141613A
:104E20002068C16841F40051C1606564202084F8A5
:104E3000410084F842006563002070BD2DE9F04117
:104E400086B0002500950195029503950446DFF88C
:104E500060C10368574802210322574F80264FF054
:104E6000100863454CD1836943F4804383618369AF
:104E700003F480430493836943F0040383618069EE
:104E8000039200F0040004900802CDE90001694695
:104E90003846FEF7EBF9F000CDE9000569463846E3
:104EA0000295FEF7E3F9464F4448C7E90005C7E914
:104EB00002563D617D61BD613846FD61FEF712F825
:104EC00008B1FDF7DCFBE7637C623D4F3B484437AC
:104ED0001438C7E902563D617D61BD61FD61C7E9D6
:104EE00000083846FDF7FEFF08B1FDF7C8FBA763D1
:104EF0000022082125207C62FEF77EFE252051E05D
:104F0000DFF8C0C063454FD1C36943F40033C361C8
:104F1000C36903F400330493836943F0040383619A
:104F20008069039200F0040004900420CDE90001A0
:104F300069463846FEF79AF90820CDE9000569462A
:104F400038460295FEF792F91D4F1C4888371430F9
:104F5000C7E90005C7E902563D617D61BD6138467C
:104F6000FD61FDF7BFFF08B1FDF789FBE7637C62D8
:104F7000134F1248CC372830C7E902563D617D6196
:104F8000BD61FD61C7E900083846FDF7ABFF08B118
:104F9000FDF775FBA7630022072126207C62FEF740
:104FA0002BFE2620FEF71AFE06B0BDE8F0810000B9
:104FB0000038014000100240000801405800024043
:104FC000D00F0020004400407047000070B5044638
:104FD00090F84100202801D0022070BD49B342B3AF
:104FE0002162A284E28400206064212384F841309D
:104FF000A56B114BAB62A56B104BEB62A56B104B15
:105000002B63A36B5863256813462A1DA06BFDF71D
:1050100097FF21686FF0400008602068143050E866
:10502000001F41F0800140E80012002AF5D1002065
:1050300070BD012070BD0000E76000082961000814
:105040009D60000870B5006808490024084D88423A
:1050500006D1811500220748FEF7FDF92C7070BDBE
:1050600005498842FBD16C7070BD000000380140DA
:105070002000002000080140004400407047FEE787
:1050800001684A69D24352050FD46FF480624A61C5
:10509000002140F8301F202242738173026942F0E0
:1050A0000402026101730120704700207047000074
:1050B0002DE9F84F0446006889460B9D0168984623
:1050C000174641F4806101602068016841F48071F5
:1050D000016000954FF0011B0022594620460A9BB3
:1050E00000F0E4F84FF4007A40B120680068C00591
:1050F00001D5C4F840A00320BDE8F88F216809F06D
:10510000FE0008612B46284920460A9A00F016F94D
:10511000F0BB20684169806900902A4620460A99C0
:1051200000F0A2F940B1206C04283AD1206801684F
:1051300041F40071016034E0FEB2B8F1010F09D012
:105140002168380A08612A4620460A9900F08CF93D
:105150000028E8D1206806612A4620460A9900F016
:1051600083F90028DFD12068016841F48071016073
:1051700000950022594620460A9B00F097F8002827
:10518000B3D1216809F0FF0040F00100086100E0A0
:1051900007E02B46044920460A9A00F0CFF8002881
:1051A000AAD00120A8E70000020001002DE9F84381
:1051B000044600680D46DDE90897016898461646E2
:1051C00041F4807101604B4600224FF001112046EE
:1051D000009700F06BF848B120680068C00502D560
:1051E0004FF4007020640320BDE8F883216805F0C7
:1051F000FE0008613B464A461549204600F09EF8ED
:1052000088B920684169806900903A46494620463D
:1052100000F02AF948B1206C042804D12068016804
:1052200041F4007101600120DEE7F5B2B8F1010F31
:1052300009D02168300A08613A464946204600F004
:1052400013F90028E7D1206805610020CCE70000B1
:105250000200010070B516460D4604461EE02046C9
:10526000FFF70EFF08B1012070BD681C16D0FEF7D5
:10527000F7F8801BA84200D885B920684069C04370
:1052800040070BD5002044F8300F20216173A07334
:10529000216941F0200121612073E4E72068406921
:1052A000C0434007DBD4002070BD00002DE9F0476B
:1052B000984617460D460446C1F30746DDF8209090
:1052C0002AE000BFB8F1FF3F26D0FEF7C9F8A0EBF7
:1052D0000901414502D8B8F1000F1DD12068012E07
:1052E00016D0806925EA00000004000C12D00020CE
:1052F000B84211D1002044F8300F20216173A0730F
:10530000216941F02001216120730120BDE8F0876F
:105310004069E7E70120EBE72068012E0AD08069A9
:1053200025EA00000004000C06D00020B842C9D0D5
:105330000020EBE74069F3E70120F7E72DE9F047AC
:10534000984616460D4604464FF000094FF0200AD5
:10535000C1F3074723E020684069C043400515D4E6
:105360002068016841F40071016021686FF4806079
:105370004861C4F8309084F83DA084F83E90216CD8
:1053800041F00401216484F83C9021E0701C06D0B7
:10539000FEF766F8A0EB0800B04203D816B1012F63
:1053A0001FD021E02068012F15D0806925EA000078
:1053B0000004000C18D000BF44F8309F84F80DA002
:1053C00084F80E90216941F02001216184F80C904D
:1053D0000120BDE8F087406925EA00000004000CC8
:1053E000EAD12068406901E02068806925EA000070
:1053F0000004000CAFD1ECE72DE9F0410025904608
:105400000E460446202728E04069C043C0060CD45D
:1054100054F8301B6FF01000486144F8105967775A
:10542000A577206A2062257714E0FEF719F8A0EB33
:105430000800B04200D886B920684069C0434006E1
:105440000BD544F8305F6773A573206940F02000E6
:10545000206125730120BDE8F08120684169C943BE
:105460004906D1D40020F6E770B516460D4604462D
:105470001EE02046FFF704FE08B1012070BD681C45
:1054800016D0FDF7EDFF801BA84200D885B9206833
:105490004069C04300060BD5002044F8300F20219E
:1054A0006173A073216941F0200121612073E4E759
:1054B00020684069C0430006DBD4002070BD0000B6
:1054C0003EB5002411480094019402940E49846072
:1054D000016001250573047505614FF46021446086
:1054E000C161FDF7DBF908B1FDF7C9F803200094AD
:1054F000CDE9015069460548FDF74EF9002801D075
:10550000FDF7BDF83EBD0000002401405C0D002009
:10551000074910B5054808600846FDF7A4FB0028B8
:1055200003D0BDE81040FDF7AAB810BD003002401E
:1055300004000020214808B5416941F001014161A2
:105540004069002200F00100009011460B20FEF798
:1055500053FB0B20FEF742FB002211460C20FEF706
:105560004BFB0C20FEF73AFB002211460D20FEF704
:1055700043FB0D20FEF732FB002211460E20FEF702
:105580003BFB0E20FEF72AFB002211460F20FEF700
:1055900033FB0F20FEF722FB002211461020FEF7FE
:1055A0002BFB1020FEF71AFB002211461120FEF7FC
:1055B00023FBBDE808401120FEF710BB001002409D
:1055C0002DE9F04385B000244848009401940294EA
:1055D0000394816941F010018161816901F010013A
:1055E0000491816941F020018161816901F020010C
:1055F0000491816941F004018161816901F0040134
:105600000491816941F0080181618069DFF8E080DF
:1056100000F008000490012210214046FDF71BFF16
:10562000DFF8D090012211464846FDF714FF4FF4F1
:105630000147002239464046FDF70DFF00224FF496
:1056400060714846FDF707FF0225CDE90054694621
:1056500040460295FDF70AFE10200126CDE900061E
:105660000320CDE9024069464046FDF7FFFD812059
:10567000CDE9000669464846CDE90245FDF7F6FD4D
:10568000CDE90054694648460294FDF7EFFD042039
:1056900000901948CDE9010669464846FDF7E6FD48
:1056A0004CF260008DE8510069464846FDF7DEFD8A
:1056B0000097CDE90165694640460395FDF7D6FDA3
:1056C0004FF44070009011200395CDE90106694622
:1056D0004846FDF7CBFD002206210820FEF78CFA94
:1056E0000820FEF77BFA05B0BDE8F0830010024009
:1056F00000080140000C01400000211010B50A49CB
:10570000016000240949C0E901144FF48042C0E956
:10571000034244618461C4610462FDF7C5FE00B1C7
:105720000124204610BD000000580040801A0600E9
:10573000104810B50E4901604FF48271416000219C
:105740008160C1604FF400720161C0E90512182246
:10575000C0E90721416281620A21C162FEF724FE8D
:10576000002803D0BDE81040FCF789BF10BD000041
:1057700000300140D00D002010B586B0002417483D
:10578000009401940294039404944FF08041059492
:1057900001604721C0E901144FF6FF71C0E903140D
:1057A00080218161FFF708F808B1FCF768FF4FF42A
:1057B0008050009069460948FFF7A8F808B1FCF747
:1057C0005EFF049404A905480594FEF7C1FF002874
:1057D00001D0FCF754FF06B010BD0000B00E002051
:1057E00010B586B0002417480094019402940394E5
:1057F000049413490594016040F2CF21C0E90114DB
:1058000042F20F71C0E903148461FEF7D5FF08B1BD
:10581000FCF735FF4FF48050009069460948FFF7C8
:1058200075F808B1FCF72BFF049404A9054805940A
:10583000FEF78EFF002801D0FCF721FF06B010BD57
:1058400000080040F80E00200C4810B50A4901601D
:105850004FF4E1314160002181600C22C160C0E958
:1058600004128161C161FFF7B7FA002803D0BDE8D7
:105870001040FCF704BF10BD00380140400F00206D
:105880000C4810B50A4901604FF4E1314160002134
:1058900081600C22C160C0E904128161C161FFF71F
:1058A0009BFA002803D0BDE81040FCF7E8BE10BD0D
:1058B00000440040880F0020FEE7FEE710B5FDF72A
:1058C000C5FD012800D0002010BD704730B4046928
:1058D0008D0401D5A62000E0AE20A44630BC604770
:1058E0000148FEF7F1BC0000D00D002010B5406A61
:1058F0000021C187C186FEF7E5FC10BDF8B515464D
:105900000E460B46009204460122022100F010F8D8
:1059100040B93346002280212046009500F008F867
:10592000002804D0606D40F0200060650320F8BDC1
:105930002DE9F8431E46914688460446089DFDF72A
:105940008FFD401B351AFDF78BFD07462548006883
:10595000C0F3CB30684338E0701C37D0FDF780FDD2
:10596000C01BA84203D215B1009860B32CE0206898
:10597000416821F0E00141606068B0F5827F0BD1A1
:10598000A068B0F5004F02D0B0F5806F04D1206858
:10599000016821F040010160A06AB0F5005F09D103
:1059A0002068016821F4005101602068016841F419
:1059B00000510160012084F85100002084F850005B
:1059C0000320BDE8F8830025401E00902068816810
:1059D00038EA010004D000214945BDD10020F0E79C
:1059E0000121F9E71C00002013B501A9183000F0CF
:1059F0008BF81CBD10B50A460123172100F05CF896
:105A0000002801D04FF0FF3010BD10B50A46012329
:105A100042F2050100F050F8002801D04FF0FF30AD
:105A200010BD38B50446406A60B96946204600F0AA
:105A30003DF89DF80000242804D0262802D04FF01D
:105A4000FF3038BD01206062002038BDF0B585B060
:105A50000C460646154614216846FAF750FE092002
:105A60008DF8080000236946C3F10302D70024FA29
:105A700007F0C854024625FA07F7C8185B1C0771DF
:105A80004272DBB24773042BEED311234FF4106242
:105A9000304600F0AAF805B0F0BD30B404691546F0
:105AA0000A462946A44630BCA62060471830FFF7B6
:105AB000A1BF1830FFF7A9BF30B4D0E90154204688
:105AC000AC4630BC6047000070B50024651E98B13C
:105AD0000A6802604B684360CB68C3600B6903616E
